:020000041000EA
:1000000000B5324B212058609868022188439860DF
:10001000D860186158612E4B002199600221596106
:100020000121F02299502B49196001219960352056
:1000300000F044F80222904214D00621196600F024
:1000400034F8196E01211966002018661A6600F04E
:100050002CF8196E196E196E052000F02FF8012189
:100060000842F9D1002199601B49196000215960AB
:100070001A491B48016001219960EB211966A021F2
:10008000196600F012F800219960164914480160C1
:100090000121996001BC002800D000471248134993
:1000A000086003C880F30888084703B5996A0420EC
:1000B0000142FBD001200142F8D103BD02B5186610
:1000C0001866FFF7F2FF186E186E02BD00000240BE
:1000D000000000180000070000035F00212200005C
:1000E000F4000018222000A00001001008ED00E03C
:1000F00000000000000000000000000074B24E7A12
:10010000002004203D110010191100101F110010D3
:1001100000000000000000000000000000000000DF
:100120000000000000000000000000002511001089
:1001300000000000000000002B1100103111001021
:10014000371100103711001037110010371100104F
:10015000371100103711001037110010371100103F
:10016000371100103711001037110010371100102F
:10017000371100103711001037110010371100101F
:10018000371100103711001037110010371100100F
:1001900037110010371100103711001037110010FF
:1001A000371100103711001000000000000000009F
:1001B000000000000000000000000000000000003F
:1001C00088B000F029F801F0B7FD01F0F7F903F06D
:1001D00055FF02F041FE05F079F902F0E9FE04F066
:1001E0006FFC0A4800F0FAFF084801F001F80848DF
:1001F000016808480140002901D000F002F800F031
:1002000002F804F0BBFBECE700F0A2FE0000800067
:10021000040000D00000000800B505F021FE05F044
:100220002BFA05F05DFF00BD00B500F06FFF00BDCB
:1002300000B58CB00CB000BD00B58CB00CB000BDEA
:10024000F0C04146016049464160514681605946CF
:10025000C160694601617146416100207047704785
:1002600000B58AB0031C081C00D10120F0CB1A682D
:1002700090465A6891469A689246DA6893461A6997
:1002800095465A6997460AB000BDF0B590B0009205
:100290000B1C021C934201D0002300E00123009AB2
:1002A000002A01DD002200E001221A43002A01D0C9
:1002B00000F002F800F002F800F0BAF80D1C041C7F
:1002C000A54201D200F00AF800F000F8009B1B19CB
:1002D000AB4201D200F002F800F053F8071C0E1CEC
:1002E000009A052A01DD00F002F800F039F8321C0E
:1002F00003231A403B1C032423409A4201D100F0FF
:1003000002F800F02DF804239B1B03221340009AEF
:10031000D21A00921A1CD219151C00F004F83A786F
:10032000327001360137AF4201D2FFF7F8FF00F01B
:1003300000F8009CA408221C92003C1CA418251C58
:1003400000F004F83A68326004360437AF4201D254
:10035000FFF7F8FF00F000F80324009A2240009213
:10036000009CE419251C00F004F83A78327001363C
:100370000137AF4201D2FFF7F8FF00F000F800F0BC
:1003800057F8021C009CA418271C0A1C0099891805
:100390000E1C0098052801DD00F002F800F038F886
:1003A000321C03200240391C032001408A4201D143
:1003B00000F002F800F02CF8311C032001400B1C67
:1003C0000098C01A0090381CC01A051C00F004F8F0
:1003D000013E013F38783070AF4201D9FFF7F8FF96
:1003E00000F000F8009989088900381C401A051CA3
:1003F00000F004F8043E043F38683060AF4201D991
:10040000FFF7F8FF00F000F8032100980840009083
:10041000391C0098091A0D1C00F004F8013E013F38
:1004200038783070AF4201D9FFF7F8FF00F000F8DC
:1004300010B0F0BDF0B594B0D7B2002901DC00F0E7
:1004400002F800F002F800F050F8021C0F2901DD5C
:1004500000F002F800F03DF8381C3B1C1B0218436A
:10046000031C1B0418430323141CE418261C1C1C27
:1004700004252C40002C01D100F002F800F004F813
:10048000DB43334000F006F8341C03252C40351CB8
:100490002D1B2B1C1C1CA41A091B00F002F8177042
:1004A00001329A4201D2FFF7FAFF00F000F80C1C6B
:1004B000A408A400151C2D192B1C00F002F81060D4
:1004C00004329A4201D2FFF7FAFF00F000F803204D
:1004D0000140081C801800F002F8177001328242B7
:1004E00001D2FFF7FAFF00F000F814B0F0BD30B50C
:1004F000CCB0051C101C04788C4201DD00F002F821
:1005000000F001F8CCB2221C0132291CFFF7BDFE1D
:100510002C704CB030BDF0B5FFB08FB00090141C03
:100520001F1C26783D78281C8019884201DD00F0C8
:1005300002F800F00AF88E4201DD00F002F800F047
:1005400001F80E1C081C801B051C0099201C814210
:1005500001D100F002F800F00DF8301C0130C1B2FA
:10056000EAB2381C0130C9B2009BC918FFF78DFEF2
:1005700000F02EF80099381C814201D100F002F8F9
:1005800000F014F8301C0130C3B2EAB20098013018
:10059000D9B2009BC918FFF778FEF2B20099013179
:1005A000201C0130FFF771FE00F012F8F2B2009942
:1005B0000131201C0130FFF768FE301C0130C1B250
:1005C000EAB2381C0130C9B2009BC918FFF75DFEC2
:1005D000281C8019C1B2009801707FB00FB0F0BD27
:1005E000F0B5D2B04090429141924393181C00283C
:1005F00001D100F002F800F005F8002140980170E8
:1006000000F095F80022409B111C89004198415848
:100610008B4201D100F002F800F001F80132449859
:10062000002044904398824201DC00F002F800F080
:100630001FF8111C013945984591459801304590A6
:10064000409B45998900419841588B4201D100F067
:1006500002F800F005F844980120449000F008F8F2
:1006600045984399884201DB00F002F8FFF7E5FF67
:100670004498002801D000F002F800F007F80022AA
:100680000021684601706B4600F00AF8002A01D18B
:1006900000F002F800F003F8002140980170409B40
:1006A0001F1C3D784398824201DC00F002F800F004
:1006B00031F8111C01394598459145980130459014
:1006C000011C890041984458002C01D000F002F828
:1006D00000F018F82678291C89194298814201DD1A
:1006E00000F002F800F003F84299491BCEB2281C32
:1006F0000130C1B2201C0130321CC9B2C919FFF748
:10070000C4FDAD1945984399884201DB00F002F819
:10071000FFF7D3FF3D704498002801D000F002F8A5
:1007200000F005F86A4640984299FFF7E0FE52B0A3
:10073000F0BD00B58AB0016801390160081C0028CD
:1007400001D0002000E00120C0B20AB000BD00B519
:100750008AB0011C0868013008600AB000BD0000C2
:1007600000B58CB0011C0D31684600F03FFC0098CC
:10077000002801D000F002F800F013F800990120E1
:10078000486000980021816000990748008808802F
:1007900000980121418000980C300090011C00203D
:1007A000087000980CB000BD983F002010B58CB0C8
:1007B000011C0868002801D100F002F800F002F8DE
:1007C00000F01CF808680C38041C00200860606801
:1007D000002801DA00F002F800F002F800F00EF84C
:1007E000201C0430FFF7A5FFC0B2002801D000F0A4
:1007F00002F800F003F8201C00F00EFC0CB010BD55
:1008000000B58AB0011C002901D100F002F800F007
:1008100002F800F00EF808480858002801DA00F045
:1008200002F800F002F800F004F8081C0838FFF79E
:100830008EFF0AB000BDC046F8FFFFFF30B58AB09A
:10084000051C0C1C2868A04201D100F002F800F041
:1008500002F800F016F8002C01D000F002F800F0C9
:100860000CF809482058002801DD00F002F800F0DB
:1008700004F8201C0838FFF76AFF281CFFF796FFD2
:100880002C600AB030BDC046F8FFFFFFF0B5A8B03D
:10089000061C0D1C97B20020009001AA04A901209B
:1008A00000F0B4FAFFF7CCFC0E90002801D000F065
:1008B00061F8301C0021FFF7C1FF281C002801D17E
:1008C00000F002F834494058041C002C01DD00F00F
:1008D00002F800F04FF8381C012F01D800F002F8A0
:1008E00000F002F82D490888071C281C00F062F966
:1008F00080B2011C012801D800F002F800F002F8D3
:1009000026480188B94201D0002200E00122244893
:10091000814201D0002000E001201043002801D0D6
:1009200000F002F800F012F8301C0022211C00F048
:1009300065F8301C00F01EF9011C281C221CFFF772
:10094000A4FC316817480F5200F014F86846291CBF
:1009500000F004FA0098002801D100F002F80E49D6
:100960004058041C311C009D231CBAB20E48046878
:10097000281CA04700F09EFA684600F0C5F90E98C2
:10098000002801D100F006F800F0AAFA00200E902D
:10099000FFF7F0FF28B0F0BDFCFFFFFF983F0020FD
:1009A000FFFF0000F4FFFFFFE83F002070B58CB0B0
:1009B000061CCDB290B2011C012801D800F002F84B
:1009C00000F002F80B4801880C1C301C00220121A9
:1009D00000F014F83168002901D000F001F8064950
:1009E0000D70301C0022211C89B200F037F90CB0C8
:1009F00070BDC046983F00200240002070B594B002
:100A0000051C0E1C94B2002E01DD00F002F800F06F
:100A10007DF82868002801D100F002F800F013F8F2
:100A2000301CFFF79DFE2860201C012C01D800F02F
:100A300002F800F002F838490888041C2968374891
:100A40000C5200F059F8286835494058012801D166
:100A500000F002F800F02AF828680C38009000F046
:100A6000D1FA041C311C0D31A14201DD00F016F851
:100A700000F000F8202C01DD00F002F800F00CF886
:100A8000201CC00F20184010884201DB00F002F843
:100A900000F002F800F002F800F006F8684600F0F6
:100AA000CFFA00980C30286000F026F8301CFFF7D1
:100AB00057FE0090021C28681849405A17495052A6
:100AC0002868002801D100F002F816494058041C9B
:100AD000A64201DC00F002F800F003F8341C00F03C
:100AE00001F8013400992868221CFFF7CEFB281C6E
:100AF000FFF75CFE009828602868311C0918002068
:100B0000087028680749465000F003F8281CFFF7D2
:100B10004DFE14B070BDC046983F0020F4FFFFFFAB
:100B2000F8FFFFFFFCFFFFFF70B58EB0061C3068BA
:100B30000E494558281CFFF713FE011C2A1C0132E0
:100B400030680C1CFFF7A1FB221C291C0748115020
:100B50003168141C0648085A05496052301CFFF7DA
:100B600025FE201C34600EB070BDC046FCFFFFFFA8
:100B7000F4FFFFFF10B58CB0021C1468201C002885
:100B800001D100F002F800F002F800F00DF8106852
:100B900007494058012801D000F002F800F004F89D
:100BA000101CFFF7C1FF041C201C0CB010BDC04678
:100BB000F8FFFFFF00B58AB0002801D000F002F86E
:100BC00000F004F80449405A00F002F8034908888C
:100BD00080B20AB000BDC046F4FFFFFF983F00207E
:100BE00070B5A0B0051C8EB2D4B200200E906A463B
:100BF00003A9012000F00AF9FFF722FB0D9000285D
:100C000001D000F017F8002C01D000F002F800F03D
:100C10000BF829680EA8B2B2FFF738FE0E99281C0F
:100C2000FFF70CFE00F006F8281CFFF7A3FF296869
:100C300009480E5200F03EF90EA8FFF7B7FD0D98D7
:100C4000002801D100F006F800F04AF900200D90CC
:100C5000FFF7F0FF20B070BDF4FFFFFF30B590B09C
:100C6000031C8CB2D2B21868002801D100F002F83F
:100C700000F002F800F03FF818682049405AA042FE
:100C800001D100F002F800F002F800F034F8011C85
:100C9000012801D800F002F800F002F81848018895
:100CA0000D1C201C012C01D800F002F800F002F805
:100CB00013490888854201D1002100E00121101C60
:100CC0000840021C002A01D100F002F800F00EF8E2
:100CD00019680C480858012801D100F002F800F00A
:100CE00005F8196805480C5200F005F8181CD2B236
:100CF000A1B2FFF775FF10B030BDC046F4FFFFFF93
:100D0000983F0020F8FFFFFF10B58CB0011C086869
:100D1000002801D100F002F800F002F800F01CF801
:100D200008680C38041C002008606068002801DA9C
:100D300000F002F800F002F800F00EF8201C043079
:100D4000FFF7F7FCC0B2002801D000F002F800F075
:100D500003F8201C00F060F90CB010BD70B590B025
:100D6000051C0E1C281C002100F032F8301C002845
:100D700001D100F002F812494058041C002C01DD9A
:100D800000F002F800F01AF8301CFFF713FF80B2F1
:100D9000011C012801D800F002F800F002F809480F
:100DA00001882A1C331C002B01D000F001F8064BEF
:100DB000181C231C89B2054C2468A04710B070BDD4
:100DC000FCFFFFFF983F002002400020EC3F002086
:100DD00030B58AB0051C0C1C002C01D000F002F8C4
:100DE00000F00CF808482058002801DD00F002F857
:100DF00000F004F8201C0838FFF7A9FC281CFFF7B6
:100E000083FF2C600AB030BDF8FFFFFF30B58EB015
:100E1000051C064C131C20685860221C181C13600B
:100E20000A1C01608560101C0EB030BD044000201B
:100E300030B58AB01B4801681B480068002801D102
:100E4000002200E00122002901D1002000E0012061
:100E50001040002801D000F002F800F00FF8081C44
:100E600045690369426801680F480468081C111C41
:100E70001A1C2B1CA047D92000F072F80B48006800
:100E8000002801D100F002F800F005F8D92000F0A8
:100E90007BF800F004F80648008800F061F80AB01A
:100EA00030BDC0460840002010000020080000208F
:100EB0000C00002010B58AB0084C2068002801D131
:100EC00000F002F800F005F8FF2000F049F800F00B
:100ED00003F82068406820600AB010BD044000207C
:100EE00010B58AB009480468002C01D100F002F85E
:100EF00000F002F8FFF79CFF054801680020C86079
:100F000020680121FFF7ACF90AB010BD04400020B1
:100F10000840002010B58AB000F00AF800210A4805
:100F200001800A480468002008490860201C8047A6
:100F300006480068002801D0FFF7F0FF00F000F835
:100F4000FFF772F90AB010BD9A3F0020040000209C
:100F500000B588B0FFF7DEFF00F07CF808B000BDF8
:100F60008AB0021CFF2A01DD00F002F800F005F84B
:100F7000FF210448016000F002F802480260FFF718
:100F8000E7FFC046943F002092B081B20C48018038
:100F9000002001900020009001990098FFF74CF983
:100FA000041C01990098FFF743F90094019005494A
:100FB000086000980449086001480088FFF7D0FFE6
:100FC0000C000020080000201400002000B594B0A0
:100FD000054A30230178013011700132013B01D004
:100FE000FFF7F8FF14B000BD1C00002010B58CB056
:100FF000041C081C02490968884720600CB010BD19
:101000002000002000B58CB00249096888470CB068
:1010100000BDC0463400002000B58CB0024909680C
:1010200088470CB000BDC0462400002000B58CB03D
:101030000249096888470CB000BDC0462C0000205A
:1010400000B58CB0024A126890470CB000BDC04693
:101050003000002001B40248844601BC6047C0460D
:1010600037110010F0B58CB02648076839787878C9
:1010700000020143B87800040143F87800060143F8
:10108000081C0138041C002C01DB00F002F800F001
:1010900037F81D4E0136301CC000011CC91904313F
:1010A0000A78487800020243887800040243C8782E
:1010B000000602431568103500F006F8281C0430BD
:1010C0000021FFF7BBFB1035301CC000011CC91903
:1010D00008310A7848780002024388780004024305
:1010E000C878000602431068A84201D9FFF7E6FF5E
:1010F00000F000F8B44201DC00F002F8FFF7CAFF8C
:101100000CB0F0BD18000020FFFFFFFF00B588B055
:10111000FFF7A8FF08B000BD00BEFDE7704700BEA6
:10112000FDE7704700BEFDE7704700BEFDE7704772
:1011300000BEFDE7704700BEFDE770470D490E4A4F
:101140000E4B042408681060091912199A42F9D943
:101150000649074A0020086009199142FBD908484E
:1011600008490160FFF72CF8E5E7C0468418002025
:10117000F0430020986B001000000020821800202F
:1011800008ED00E0000100107047C04600B58AB0CD
:10119000694608700022012168460023C05600F00D
:1011A0009BF80AB000BD000000B58AB0694608701F
:1011B00068460021405601218140074800680840E8
:1011C000002801D1002000E0012001A9087001A938
:1011D00008780AB000BDC046040000D000B58AB04F
:1011E0000090011C014801600AB000BD140000D04D
:1011F00000B58AB00090011C014801600AB000BD32
:10120000180000D000B58AB06A46107001A80170BD
:1012100001A80078002801D000F002F800F009F8D9
:1012200068460021415601208840FFF7D7FF00F0B3
:1012300007F869460020095601208840FFF7D8FFCB
:101240000AB000BD00B58AB00090011C01480160E1
:101250000AB000BD240000D000B58AB00090011C87
:10126000014801600AB000BD280000D000B58AB076
:101270006A4610700191081C012801D100F002F8A3
:1012800000F009F868460021415601208840FFF728
:10129000D9FF00F007F86946002009560120884070
:1012A000FFF7DAFF0AB000BD094A830094464022E6
:1012B000634410B51C68C0006240C0241440802202
:1012C000520113431C60034B9C466044416010BDB7
:1012D00004C00140004001400A4B80009C460423AA
:1012E0006044002901D00C230821002A00D10B0002
:1012F000026853400C221A4080235B0118430260AD
:101300007047C04604C001400123D022834012062A
:1013100093629361094A83009446402263441968AA
:10132000C0004A40C021114080225201134319607D
:10133000034B9C46052360444360704704C0014052
:101340000040014000B58AB000216846018068462F
:10135000028800211348115468460088013080B289
:1013600069460880684600880F2801D900F002F815
:10137000FFF7EDFF002168460180684602880021E2
:101380000948115468460088013080B269460880D7
:10139000684600880F2801D900F002F8FFF7EDFF3A
:1013A0000AB000BD414000201740002000B58AB0BF
:1013B000012102A8017000F044F8002102A8017088
:1013C0000F2168460180684601882348095C03A80C
:1013D000017003A80078002801D100F002F800F0A5
:1013E00022F868460088013881B201A8018001A86E
:1013F00001881948095C04A8017004A80078002835
:1014000001D000F002F800F00EF86846028804A847
:1014100001781148115401A8028800210E48115486
:10142000012002A9087068460088013880B2694628
:10143000088068460088012801D200F002F8FFF712
:10144000C2FF02A80078002801D0FFF7B6FF00F025
:1014500000F80AB000BDC0461740002000B58AB0B1
:10146000012102A8017000F044F8002102A80170D7
:10147000002168460180684601882348095C03A86A
:10148000017003A80078002801D100F002F800F0F4
:1014900022F868460088013081B201A8018001A8C5
:1014A00001881948095C04A8017004A80078002884
:1014B00001D000F002F800F00EF86846028804A897
:1014C00001781148115401A8028800210E481154D6
:1014D000012002A9087068460088013080B2694680
:1014E0000880684600880E2801D900F002F8FFF74E
:1014F000C2FF02A80078002801D0FFF7B6FF00F075
:1015000000F80AB000BDC0464140002000B58AB0D6
:10151000012102A8017000F044F8002102A8017026
:10152000002168460180684601882348095C03A8B9
:10153000017003A80078002801D100F002F800F043
:1015400022F868460088013081B201A8018001A814
:1015500001881948095C04A8017004A800780028D3
:1015600001D000F002F800F00EF86846028804A8E6
:1015700001781148115401A8028800210E48115425
:10158000012002A9087068460088013080B26946CF
:101590000880684600880E2801D900F002F8FFF79D
:1015A000C2FF02A80078002801D0FFF7B6FF00F0C4
:1015B00000F80AB000BDC0461740002000B588B052
:1015C000002122480170FFF7BDFE0020204908706D
:1015D00000202049087000201F49087000201F4982
:1015E000087000201E49087000201E490870002065
:1015F0001D49088000201D49087007201C490870FB
:1016000020201C49087000201B49087000201B493D
:10161000088000201A49088000201A49087002201A
:1016200019490870002019490870002018490870ED
:101630000020184908700020174908700020174939
:10164000087001200749087008B000BD554000200F
:10165000294000202A4000202B4000202C40002060
:101660002D4000202E4000205840002056400020F1
:101670005A4000205B400020104000201240002013
:10168000144000205C4000200E4000202740002035
:1016900028400020514000205240002053400020AC
:1016A00000B58AB069460880684600880249484308
:1016B00004F098FD0AB000BDE803000000B588B052
:1016C0001520FFF721FE152000F0ACF81620FFF7DB
:1016D0001BFE162000F0A6F80220FFF715FE0220E0
:1016E00000F0A0F80320FFF70FFE032000F09AF8A7
:1016F00000F01EF8152000F07FF8162000F07CF8AE
:10170000022000F079F8032000F076F80A48FFF78D
:10171000C7FF152000F07BF8162000F078F80220B3
:1017200000F075F8032000F072F80348FFF7B8FFE7
:10173000FFF7E0FF08B000BD2C01000000B58AB043
:10174000044804F0BEFBC0B26946087069460878D8
:101750000AB000BD0040034000B58AB0044804F060
:10176000A9FCC0B269460870694608780AB000BD95
:101770000040034000B588B0034A04490448054BC3
:1017800004F0B0FB08B000BDFF010000B64000202F
:10179000004003400002000000B59EB0694608709A
:1017A00000200F9001AA04A90120FFF72FFBFEF7EC
:1017B00047FD0E90002801D000F00AF80FA8002283
:1017C00069460978FFF7F2F80F990A4804F006FC19
:1017D000FFF770FB0FA8FEF7E9FF0E98002801D174
:1017E00000F006F8FFF77CFB00200E90FFF7F0FFFB
:1017F0001EB000BD0040034000B58AB000906846AE
:10180000002140560121FFF7FDFC0AB000BD00B5E4
:101810008AB000906846002140560021FFF7F2FC94
:101820000AB000BD00B58AB000906846002140565D
:101830000121FFF71BFD0AB000BD00B58AB0009082
:101840006846002140560021FFF710FD0AB000BD98
:1018500000B58AB00090684600214056FFF7A4FC0E
:10186000C0B201A9087001A908780AB000BD00B58E
:101870008AB00090694600200856FFF795FCC0B278
:10188000002801D0002000E0012001A9087001A972
:1018900008780AB000BD00B588B001211720FFF715
:1018A000B1FC08B000BD00B588B000211720FFF7DB
:1018B000A9FC08B000BD00B588B001211A20FFF7CF
:1018C000A1FC08B000BD00B588B000211A20FFF7C8
:1018D00099FC08B000BD00B588B001210520FFF7D4
:1018E00091FC08B000BD00B588B000210520FFF7CD
:1018F00089FC08B000BD00B58AB01C20FFF754FC7D
:10190000C0B2002801D000F002F800F005F8002174
:101910006846017000F003F80120694608706946C6
:1019200008780AB000BD00B58AB01C20FFF73CFC67
:10193000C0B2002801D000F002F800F005F8012143
:101940006846017000F003F8002069460870694697
:1019500008780AB000BD00B58AB01D20FFF724FC4E
:10196000C0B2002801D000F002F800F005F8002114
:101970006846017000F003F8012069460870694666
:1019800008780AB000BD00B58AB01D20FFF70CFC36
:10199000C0B2002801D000F002F800F005F80121E3
:1019A0006846017000F003F8002069460870694637
:1019B00008780AB000BD00B58AB01B20FFF7F4FB21
:1019C000C0B2002801D000F002F800F005F80121B3
:1019D0006846017000F003F8002069460870694607
:1019E00008780AB000BD00B588B00620FFF725FFD3
:1019F0000720FFF722FF0820FFF71FFF0920FFF74E
:101A00001CFF0A20FFF719FF0B20FFF716FF0C2021
:101A1000FFF713FF0D20FFF710FF08B000BD00B562
:101A200088B00620FFF7FEFE0720FFF7FBFE082028
:101A3000FFF7F8FE0920FFF7F5FE0A20FFF7F2FE98
:101A40000B20FFF7EFFE0C20FFF7ECFE0D20FFF759
:101A5000E9FE08B000BD00B58CB0002101A80170FE
:101A60000620FFF7F5FEC0B2002801D000F002F812
:101A700000F007F801A8007801210843C1B201A8CD
:101A800001700720FFF7E4FEC0B2002801D000F08B
:101A900002F800F007F801A8007802210843C1B25B
:101AA00001A801700820FFF7D3FEC0B2002801D0C2
:101AB00000F002F800F007F801A8007804210843BC
:101AC000C1B201A801700920FFF7C2FEC0B2002810
:101AD00001D000F002F800F007F801A80078082112
:101AE0000843C1B201A801700A20FFF7B1FEC0B2DD
:101AF000002801D000F002F800F007F801A80078F3
:101B000010210843C1B201A801700B20FFF7A0FE0D
:101B1000C0B2002801D000F002F800F007F801A8D8
:101B2000007820210843C0B201A908700C20FFF7FB
:101B30008FFEC0B2002801D000F002F800F007F8D4
:101B400001A8007840210843C0B201A908700D2007
:101B5000FFF77EFEC0B2002801D000F002F800F0CE
:101B600006F801A801788020014301A8017001A8AE
:101B7000007869460870694608780CB000BD00B569
:101B80008AB0694608706846007801210840C1B2F1
:101B900001A8017001A80078002801D100F002F826
:101BA00000F005F80620FFF732FE00F003F80620EB
:101BB000FFF722FE6846007802210840C1B201A862
:101BC000017001A80078002801D100F002F800F0AF
:101BD00005F80720FFF71BFE00F003F80720FFF7CA
:101BE0000BFE6846007804210840C1B201A80170CC
:101BF00001A80078002801D100F002F800F005F8F3
:101C00000820FFF704FE00F003F80820FFF7F4FDBA
:101C10006846007808210840C1B201A8017001A8F7
:101C20000078002801D100F002F800F005F8092042
:101C3000FFF7EDFD00F003F80920FFF7DDFD684632
:101C4000007810210840C1B201A8017001A80078F5
:101C5000002801D100F002F800F005F80A20FFF793
:101C6000D6FD00F003F80A20FFF7C6FD68460078AD
:101C700020210840C0B201A9087001A800780028FE
:101C800001D100F002F800F005F80B20FFF7BFFDCE
:101C900000F003F80B20FFF7AFFD68460078402105
:101CA0000840C0B201A9087001A80078002801D13D
:101CB00000F002F800F005F80C20FFF7A8FD00F096
:101CC00003F80C20FFF798FD68460178802001405A
:101CD00001A8017001A80078002801D100F002F8E5
:101CE00000F005F80D20FFF792FD00F003F80D203D
:101CF000FFF782FD0AB000BD00B588B00E20FFF7E7
:101D000091FD0F20FFF78EFD1020FFF78BFD0420C3
:101D1000FFF788FD08B000BD00B588B00E20FFF7C2
:101D20008CFD0F20FFF789FD1020FFF786FD0420B2
:101D3000FFF783FD08B000BD00B58AB05748584989
:101D400004F0DEF902210020FFF7AEFA02210120A3
:101D5000FFF7AAFA0220FFF7D7FA0220FFF762FD89
:101D60000220FFF749FD0220FFF710FA0320FFF7DA
:101D7000CBFA0320FFF756FD0320FFF73DFD0320BC
:101D8000FFF704FA0420FFF7BFFA0420FFF755FD20
:101D90000520FFF7B9FA0520FFF744FD0520FFF7FE
:101DA00036FD0620FFF7B0FA0720FFF7ADFA08204E
:101DB000FFF7AAFA0920FFF7A7FA0A20FFF7A4FA0B
:101DC0000B20FFF7A1FA0C20FFF79EFA0D20FFF77A
:101DD0009BFA0E20FFF798FA0E20FFF72EFD0F203A
:101DE000FFF792FA0F20FFF728FD1020FFF78CFA7B
:101DF0001020FFF722FD1420FFF786FA1420FFF7CA
:101E00001CFD1420FFF7C2F91520FFF77DFA1520FD
:101E1000FFF708FD1520FFF7EFFC1520FFF7B6F9D7
:101E20001620FFF771FA1620FFF7FCFC1620FFF7CB
:101E3000E3FC1620FFF7AAF91720FFF765FA172031
:101E4000FFF7F0FC1720FFF7E2FC1920FFF75CFA20
:101E50001920FFF7E7FC1920FFF7D9FC1A20FFF73C
:101E600053FA1A20FFF7DEFC1A20FFF7C5FC1B20EF
:101E7000FFF74AFA1B20FFF7E0FC1C20FFF744FAAB
:101E80001C20FFF7DAFC1D20FFF73EFA1D20FFF7AC
:101E9000D4FCFFF7A8FD0AB000BDC04600400340D7
:101EA00000100E0010B5CAB00090021CFF2102A85D
:101EB000FEF71DFB02A80478012C01DB00F002F8FC
:101EC00000F013F80020019001980130019001A862
:101ED0000078684408300078FFF75EFC019884427F
:101EE00001DC00F002F8FFF7EFFF4AB010BD00B5CB
:101EF000C8B00090021CFF2101A8FEF7F8FA01A863
:101F0000FFF7D0FF0D20FFF747FC0A20FFF744FC46
:101F100048B000BD00B58AB0052101A801700021BC
:101F2000684601806846028801A801780B48115470
:101F300001A800780130C0B201A908706846008885
:101F4000013080B26946088068460088142801D9AB
:101F500000F002F8FFF7E6FF0AB000BD664000207F
:101F600010B5FFB0CBB0022101A801700021684676
:101F7000017001A800780130C1B22248085C00025B
:101F80000121084381B243A8018043AB01A8017835
:101F90001C48085C00020121084381B283A801802B
:101FA00083AA03A8FF21FEF7B6FA03A804F0C8F934
:101FB000C0B202A9087001A800780130C0B201A91E
:101FC000087001A800780130C0B201A908700E485D
:101FD000028802A801780D4811540B490888013085
:101FE0000880684600780130C0B2694608706846CB
:101FF00000780F2801D900F002F8FFF7BAFF7FB090
:102000004BB010BDB6420020BC430020B6400020BB
:1020100010B5FFB0CBB0022101A80170002102A8C9
:10202000018001A800780130C1B22248085C00029A
:102030000121084381B243A8018043AB01A8017884
:102040001C48085C00020121084381B283A801807A
:1020500083AA03A8FF21FEF75EFA03A804F070F933
:10206000C0B26946087002A8028868460178124822
:10207000115401A800780130C0B201A9087001A86C
:1020800000780130C0B201A9087002A800880130B0
:1020900080B202A9088002A80088062801D900F0B1
:1020A00002F8FFF7BEFF0120044908707FB04BB073
:1020B00010BDC046B64200207B400020BB4300203C
:1020C00010B5964CA5449648017801A8017001A866
:1020D0000078002801D900F002F800F010FA9148C9
:1020E00001786846017068460178412901D200F004
:1020F00003FA4E2901D900F0FFF9C9B2413989002C
:10210000894840588746C04680230010F8240010B4
:10211000F8240010A2230010F8240010F824001066
:1021200040210010D421001030220010C4220010E1
:10213000F8240010F8240010F8240010C423001024
:1021400001A80078052801D100F002F800F03DF860
:102150007648007800020121084381B242A801803C
:1021600042AB7348007800020121084381B282A883
:10217000018082AA02A8FF21FEF7CDF902A804F08F
:10218000DFF8C1B26B4801706B4800780002012192
:10219000084381B242A8018042AB6848007800023F
:1021A0000121084381B282A8018082AA02A8FF21EE
:1021B000FEF7B1F902A804F0C3F8C1B2604801709B
:1021C00001216048017000F003F85F48FFF78FFEBF
:1021D00000F095F901A80078032801D100F002F879
:1021E00000F021F85148007800020121084381B233
:1021F00042A8018042AB4E4800780002012108430A
:1022000081B282A8018082AA02A8FF21FEF783F989
:1022100002A804F095F8C1B24C48017001214C4865
:10222000017000F003F84B48FFF761FE00F067F91A
:1022300001A80078052801D100F002F800F03DF86F
:102240003B48007800020121084381B246A8018082
:1022500046A842903548007800020121084381B227
:10226000C2A80180C2A8439034480078000201212E
:10227000084381B238486844018037486844449034
:102280002D48007800020121084381B23348684498
:10229000018032486844459042AA02A80323FF21E6
:1022A000FEF79EF902A804F0BBF880B22C49088022
:1022B00001202C49087000F003F82B48FFF717FEA7
:1022C00000F01DF901A80078032801D100F002F800
:1022D00000F021F81548007800020121084380B27F
:1022E00042A9088042AB124800780002012108434D
:1022F00081B282A8018082AA02A8FF21FEF70BF911
:1023000002A804F01DF8C0B218490870012018494D
:10231000087000F033F817482EE0C046A0E1FFFF38
:10232000B6420020B742002008210010B942002028
:10233000B842002061400020BB420020BA42002089
:1023400062400020B94300207C6700105540002007
:10235000B643002084670010080400000805000050
:1023600058400020B74300208C67001056400020E2
:10237000B843002094670010FFF7B9FD00F0BFF8E4
:1023800001A80078212801D100F002F800F004F83B
:10239000FFF7E6FD00F003F85A48FFF7A8FD00F04C
:1023A000AEF801A800780F2801D100F002F800F083
:1023B00004F8FFF72DFE00F003F85348FFF797FDF0
:1023C00000F09DF801A800780B2801D100F002F878
:1023D00000F08DF84D48007800020121084380B2DA
:1023E00042A9088042AB4A48007800020121084314
:1023F00081B282A8018082AA02A8FF21FEF78BF891
:1024000002A803F09DFFC0B242490870424800781C
:1024100000020121084380B246A9088046A84290E4
:102420003E48007800020121084380B286A9088056
:1024300086A843903A48007800020121084380B200
:10244000C6A90880C6A84490364800780002012139
:10245000084381B234486844018033486844459059
:1024600042AA02A80323FF21FEF7BAF802A803F04C
:10247000D7FF80B22D4908802D4800780002012145
:10248000084381B246A8018046A8429029480078B6
:1024900000020121084380B286A9088086A84390E3
:1024A0002548007800020121084380B2C6A90880AF
:1024B000C6A844902148007800020121084381B257
:1024C00019486844018018486844459042AA02A807
:1024D0000323FF21FEF784F802A803F0A1FF80B2D6
:1024E0001749088001201749087000F003F81648C2
:1024F000FFF7FDFC00F003F81448FFF7F8FC144B5D
:102500009D4410BD9C670010A4670010B9420020D4
:10251000B842002010400020BA420020BB420020F8
:10252000BC420020BD4200201804000012400020E0
:10253000BE420020BF420020C0420020C142002015
:1025400014400020BA430020AC670010B4670010AC
:10255000601E000000B5CAB0FFF7FEF8C1B201A8C6
:10256000017001A800780D2801D000F002F800F0F9
:1025700024F801A800780A2801D100F002F800F040
:1025800007F8FFF79DFD00210D48017000F015F8D8
:1025900001A8007803F05AFEC0B269460870684688
:1025A000007800020121084381B202A8018002AB39
:1025B000034A0348FF21FDF7AEFF4AB000BDC04605
:1025C000B642002000B58AB01C48FFF790FC0021FD
:1025D0001B4801701B48009000F01CF8FFF7AEF894
:1025E000C0B2002801D000F002F800F010F8FFF7A8
:1025F000B1FF13480078002801D000F002F800F085
:1026000004F80220009000F002F80E4800900098B4
:10261000013800900098052801D9FFF7DFFF00F08E
:1026200000F80098022801D900F002F800F003F841
:102630000548FFF75CFC0AB000BDC046BC6700104F
:10264000BB43002020A107008C67001000B58AB0B2
:102650001C48FFF74CFC00211B4801701B480090F0
:1026600000F01CF8FFF76AF8C0B2002801D000F0B3
:1026700002F800F010F8FFF76DFF1348007800280B
:1026800001D000F002F800F004F80220009000F001
:1026900002F80E4800900098013800900098052834
:1026A00001D9FFF7DFFF00F000F80098022801D9F8
:1026B00000F002F800F003F80548FFF718FC0AB034
:1026C00000BDC046C0670010BA43002020A107002B
:1026D000C467001010B5FFB08BB06946087068463B
:1026E000007800020121084380B241A9088041AB73
:1026F000054A01A8FF21FDF70EFF01A8FFF7F7FB30
:102700007FB00BB010BDC046CC67001010B5164CA2
:10271000A544164840901648008803F0C2FDC1B297
:1027200044A803F0E1FD44A841901148008803F05B
:10273000CAFDC1B284A803F0D7FD84A842900D4819
:102740000178C4A803F0D0FDC4A8439040AA68460D
:102750000323FF21FDF744FF6846FFF7C8FBFFF79F
:1027600009F8054B9D4410BDC8FBFFFFD067001062
:10277000644000205C4000203804000010B53A4C52
:10278000A5443A4883903A48008803F08AFDC1B2D4
:1027900087A803F0A9FD87A884903548008803F036
:1027A00092FDC1B2C7A803F09FFDC7A8859031482C
:1027B00001783148684403F097FD2F4868448690BB
:1027C00083AA43A80323FF21FDF70AFF43A8FFF7CD
:1027D0008EFB00212948018000216846017043A832
:1027E0006946097803F080FD43AB254A03A8FF2121
:1027F000FDF791FE002101A80170204800882149C1
:10280000405C02A908701D4908880130088043A86F
:1028100002A9097803F068FD43AB03AA03A8FF21CE
:10282000FDF779FE01A800780130C0B201A9087057
:1028300001A800780F2801D900F002F8FFF7DDFFAA
:1028400003A8FFF754FB684600780130C0B2694620
:102850000870684600781F2801D900F002F8FFF7D9
:10286000BEFF094B9D4410BDC8F8FFFFD4670010A0
:10287000644000205C4000201C040000BC43002099
:10288000D8670010B64000203807000000B58AB0B5
:1028900000211D4801701D48FFF729FB1C480090CE
:1028A00000211C48017000F01CF8FEF747FFC0B281
:1028B000002801D000F002F800F010F8FFF74AFEFF
:1028C00014480078002801D000F002F800F004F865
:1028D0000220009000F002F80D48009000980138A6
:1028E00000900098052801D9FFF7DFFF00F000F8FD
:1028F0000098022801D900F002F800F003F8064819
:10290000FFF7F5FA0AB000BD55400020DC67001063
:1029100020A10700B6430020E067001000B58AB090
:102920001F48FFF7E4FA1F48019000211E4801707C
:1029300000F01CF8FEF702FFC0B2002801D000F042
:1029400002F800F010F8FFF705FE1748007800289D
:1029500001D000F002F800F004F80220019000F02D
:1029600002F810480190019801380190019805285B
:1029700001D9FFF7DFFF00F000F80198022801D924
:1029800000F002F800F003F80848FFF7B0FA084832
:10299000007869460870694608780AB000BDC046EC
:1029A000E867001020A10700B8430020EC67001082
:1029B0005640002000B58AB01C48FFF798FA1C4822
:1029C000009000211B48017000F01CF8FEF7B6FED5
:1029D000C0B2002801D000F002F800F010F8FFF7B4
:1029E000B9FD14480078002801D000F002F800F08A
:1029F00004F80220009000F002F80D4800900098C2
:102A0000013800900098052801D9FFF7DFFF00F09A
:102A100000F80098022801D900F002F800F003F84D
:102A20000548FFF764FA0AB000BDC046F46700101D
:102A300020A10700B7430020F867001000B58AB056
:102A400000210948017000F002F8FFF767FF06480F
:102A50000078002801D1FFF7F8FF00F000F8FFF739
:102A6000A9FF0AB000BDC0465640002010B5FFB017
:102A70008BB0164802A90870000A48700021684609
:102A80000180684601881248085C01A9087042A8C4
:102A900001A9097803F028FC42AB02AA02A8FF2191
:102AA000FDF739FD68460088013080B2694608802C
:102AB00068460088122801D900F002F8FFF7E1FF0C
:102AC00002A8FFF714FA7FB00BB010BD016D000033
:102AD0006640002010B5FFB08BB0164801A9087001
:102AE000000A4870002114480180134801881348E7
:102AF000085C6946087041A86946097803F0F4FB50
:102B000041AB01AA01A8FF21FDF705FD0A48008895
:102B1000013080B20849088007480088142801D98C
:102B200000F002F8FFF7E1FF01A8FFF7E0F97FB03E
:102B30000BB010BD01710000BC430020B640002066
:102B400010B5124CA544124840901248017844A890
:102B500003F0CAFB44A841900F48017884A803F011
:102B6000C3FB84A842900D480178C4A803F0BCFBC5
:102B7000C4A8439040AA68460323FF21FDF730FD17
:102B80006846FFF7B4F9064B9D4410BDD0FBFFFF2C
:102B9000006800105D4000205E4000205F40002083
:102BA0003004000010B5FFB08BB02248017841A876
:102BB00003F09AFB41AB204A01A8FF21FDF7ABFCD3
:102BC00001A8FFF794F91D48009000211C480170EE
:102BD00000F01CF8FEF7B2FDC0B2002801D000F0F2
:102BE00002F800F010F8FFF7B5FC1548007800284F
:102BF00001D000F002F800F004F80220009000F08C
:102C000002F80E48009000980138009000980528BE
:102C100001D9FFF7DFFF00F000F80098022801D982
:102C200000F002F800F003F80648FFF760F97FB003
:102C30000BB010BD604000200468001020A1070008
:102C4000B94300200868001010B5FFB08DB0002116
:102C5000284801700020FEF79FFD6420FEF720FD4C
:102C6000FEF76CFDC0B2002801D000F002F800F0C1
:102C70001DF8FEF771FDC1B2684601701E4801786B
:102C800068460078814201D100F002F800F003F8B4
:102C900001211848017068460078132801D100F01E
:102CA00002F800F003F80121124801701148007881
:102CB000002801D000F002F800F005F80F48FFF7F7
:102CC00016F900F014F80E48419044A869460978B6
:102CD00003F00AFB44A842900A48439041AA01A885
:102CE0000223FF21FDF77CFC01A8FFF700F97FB06C
:102CF0000DB010BD544000204D000020146800109D
:102D0000346800101068001000B58AB0434801789C
:102D1000802001406846017068460078002801D98B
:102D200000F002F800F00BF83D480078002801D1CF
:102D300000F002F800F003F801213948017037482B
:102D4000007840210840C1B26846017068460078AA
:102D5000002801D900F002F800F003F80121314801
:102D600001702E48007820210840C1B268460170E9
:102D700068460078002801D900F002F800F003F856
:102D80000121294801702548007810210840C1B26E
:102D90006846017068460078002801D900F002F802
:102DA00000F003F80121214801701C480078082137
:102DB0000840C0B26946087068460078002801D90A
:102DC00000F002F800F003F80121194801701348DF
:102DD000007804210840C1B2684601706846007856
:102DE000002801D900F002F800F003F80120114991
:102DF00008700A48007802210840C0B2694608708D
:102E000068460078002801D900F002F800F003F8C5
:102E10000120094908700AB000BDC0465540002095
:102E2000294000202A4000202B4000202C40002078
:102E300051400020534000202D40002000B588B0B4
:102E4000FFF724FDFFF760FF0248FFF750F808B0D6
:102E500000BDC0466468001000B588B00021174866
:102E600001800021164801700720164908702020B3
:102E70001549087000201549087000201449087091
:102E800000201449087000201349087000201349DD
:102E90000870FFF73FF8FFF7D7FE4020FEF77CFCF5
:102EA000FFF7D2FE0E480078002801D000F002F8AB
:102EB00000F002F8FFF7C2FF08B000BD5840002044
:102EC000564000205A4000205B400020B7430020BD
:102ED000B8430020BA430020B6430020B642002089
:102EE0005440002000B588B0034804490422FDF78F
:102EF000CCF908B000BDC04600F00F100C40002017
:102F000000B5C8B06846FF220949FDF793FA694643
:102F100008480422FDF7B9F90749084803F01CFCEA
:102F20006946034A054803F01FFC48B000BDC0468F
:102F3000000100000C4000200010000000F00F0015
:102F400000B588B004480188044801800120044984
:102F5000087008B000BDC046500000200C400020A2
:102F60000E40002000B588B0FFF7CAFF08B000BDD2
:102F700000B588B0FFF7B6FF0A4801880A48008804
:102F8000814201D100F002F800F006F8074A074933
:102F90001078087000F004F8FFF7D2FFFFF7E2FFA7
:102FA00008B000BD0C400020500000200E40002062
:102FB00000B588B0FFF7DCFF4C480078002801D14D
:102FC00000F00EF8013801D100F00FF8013801D1FE
:102FD00000F010F8013801D100F011F800F014F8F9
:102FE00001214248017000F012F84148FEF77FFFCE
:102FF00000F00DF83F48FEF77AFF00F008F83E4871
:10300000FEF775FF00F003F80121384801703748DA
:103010000078012801D200F067F8013801D100F0F2
:1030200006F8023801D100F035F800F05DF83348B9
:103030000078002801D000F002F800F011F801211A
:103040002F4801702F480078002801D000F002F8C6
:1030500000F004F82C4801782C48017000F018F8B2
:1030600028480078002801D000F002F800F010F89D
:10307000254801782248017025480078002801D0B1
:1030800000F002F800F004F8214801781F480170B0
:1030900000F02AF81B480078002801D000F002F860
:1030A00000F015F8184801781548017001201749FB
:1030B000087017480078002801D000F002F800F0EE
:1030C00004F8134801781148017000F00BF80B4820
:1030D0000078002801D000F002F800F003F8012188
:1030E0000748017000F000F808B000BD0E40002055
:1030F0008468001098680010B468001051400020E7
:10310000274000205240002041400020284000205D
:103110004240002000B588B0FFF72AFF1048017830
:103120001048017000201049087000200F490870F5
:1031300000200F49087000200E49087000200E4939
:10314000087000200D49087000200D49087000200B
:103150000C49087000200C49087008B000BDC0463A
:103160000E40002082400020834000208440002048
:1031700085400020864000208740002088400020B5
:10318000894000208A4000208B40002000B588B094
:10319000FFF7EEFE0348017803480170FFF7E2FEF7
:1031A00008B000BD824000200E40002000B588B06D
:1031B00025480178012901D200F044F80D2901D9F0
:1031C00000F040F8C9B201398900204840588746CC
:1031D0000432001044320010443200104432001017
:1031E00044320010443200104432001044320010C7
:1031F000443200100C3200101A3200102832001035
:1032000036320010FFF766FC00F01CF80020104971
:10321000087001F0C3FE00F015F801200C49087099
:1032200001F0BCFE00F00EF802200949087001F020
:10323000B5FE00F007F803200549087001F0AEFE66
:1032400000F000F808B000BD29400020D031001087
:103250001640002000B588B025480178012901D228
:1032600000F044F80D2901D900F040F8C9B2013945
:103270008900204840588746AC320010EC320010DC
:10328000EC320010EC320010EC320010EC32001086
:10329000EC320010EC320010EC320010B4320010AE
:1032A000C2320010D0320010DE320010FFF748FCAE
:1032B00000F01CF800201049087001F093FE00F0A7
:1032C00015F801200C49087001F08CFE00F00EF892
:1032D00002200949087001F085FE00F007F803207C
:1032E0000549087001F07EFE00F000F808B000BD4E
:1032F00029400020783200101640002000B588B028
:1033000025480178012901D200F044F80D2901D99E
:1033100000F040F8C9B2013989002048405887467A
:103320005433001094330010943300109433001081
:103330009433001094330010943300109433001031
:10334000943300105C3300106A330010783300109F
:1033500086330010FFF726FC00F01CF8002010490F
:10336000087001F059FE00F015F801200C490870B2
:1033700001F052FE00F00EF802200949087001F039
:103380004BFE00F007F803200549087001F044FEE9
:1033900000F000F808B000BD2940002020330010E4
:1033A0001640002010B5CAB00090021CFF2104A8EE
:1033B000FDF79DF8254801782548017004A801789B
:1033C00002A8017002A80478012C01D300F002F8D1
:1033D00000F025F8002103A8017003A8007801304F
:1033E000C0B203A9087003A80078684410300178BF
:1033F00001A8017001A8007802F034FFC1B215489D
:1034000001701448017814480170FFF723FF03A8E6
:103410000078844201D800F002F8FFF7DEFF0F4881
:1034200001780C4801700B4801780B480170FFF7D8
:1034300011FF0B48007807490870064801780648D4
:103440000170FFF707FF4AB010BDC0464C000020D6
:103450005D4000205B4000205E4000204E000020C8
:103460004F00002010B5FFB08BB0A94800780028AD
:1034700001D000F002F800F05EF8A64A04A8FF218F
:10348000FDF735F8A248017801A8017001A801787C
:10349000012901D200F04CF80D2901D900F048F8BB
:1034A000C9B2013989009C4840588746E034001071
:1034B0003035001030350010303500103035001038
:1034C0003035001030350010303500103035001028
:1034D000F0340010003500101035001020350010B9
:1034E0008E4B04AA04A8FF21FDF715F800F020F880
:1034F0008B4B04AA04A8FF21FDF70DF800F018F883
:10350000884B04AA04A8FF21FDF705F800F010F885
:10351000854B04AA04A8FF21FCF7FDFF00F008F882
:10352000824B04AA04A8FF21FCF7F5FF00F000F885
:1035300004A8FFF737FF7E480078002801D000F08C
:1035400002F800F05EF87B4A04A8FF21FCF7CFFFE9
:103550007748017801A8017001A80178012901D2FA
:1035600000F04CF80D2901D900F048F8C9B2013932
:103570008900714840588746AC350010FC35001072
:10358000FC350010FC350010FC350010FC35001037
:10359000FC350010FC350010FC350010BC35001067
:1035A000CC350010DC350010EC3500105B4B04AA64
:1035B00004A8FF21FCF7AFFF00F020F8584B04AA45
:1035C00004A8FF21FCF7A7FF00F018F8554B04AA48
:1035D00004A8FF21FCF79FFF00F010F8524B04AA4B
:1035E00004A8FF21FCF797FF00F008F84F4B04AA4E
:1035F00004A8FF21FCF78FFF00F000F804A8FFF7F4
:10360000D1FE432102A8017000216846018068466E
:1036100001884A48095C01A8017001A800780028C7
:1036200001D000F002F800F06AF802A8007802F079
:103630000DFEC0B203A9087003A8007800020121A2
:10364000084381B244A8018044AA3D4B04A8FF214D
:10365000FCF761FF01A80178012901D200F04CF8C4
:103660000D2901D900F048F8C9B20139890035485F
:1036700040588746A8360010F8360010F83600107B
:10368000F8360010F8360010F8360010F836001042
:10369000F8360010F8360010B8360010C8360010A2
:1036A000D8360010E8360010274B04AA04A8FF21E2
:1036B000FCF731FF00F020F8244B04AA04A8FF21F6
:1036C000FCF729FF00F018F8214B04AA04A8FF21F9
:1036D000FCF721FF00F010F81E4B04AA04A8FF21FC
:1036E000FCF719FF00F008F81B4B04AA04A8FF21FF
:1036F000FCF711FF00F000F804A8FFF753FE02A842
:1037000000780130C0B202A908706846008825E040
:1037100027400020C8680010AC340010D0680010AA
:10372000DC680010F06800100469001018690010CF
:10373000284000202C690010783500101740002028
:1037400034690010743600103C690010486900109C
:103750005C6900107069001084690010013080B24B
:1037600069460880684600880F2801D900F002F8F1
:10377000FFF74DFF7FB00BB010BDC04610B5574CE2
:10378000A544574A6846FF21FCF7B1FE5548017829
:10379000684600F0DBF86846FFF704FE524A6846C8
:1037A000FF21FCF7A4FE51480178684600F0CEF8EE
:1037B0006846FFF7F7FD4E480078002801D000F07A
:1037C00002F800F00DF84B4A6846FF21FCF78FFE27
:1037D00047480178684600F0B9F86846FFF7E2FD0F
:1037E00045480078002801D000F002F800F00DF8FC
:1037F000424A6846FF21FCF77AFE3F480178684656
:1038000000F0A4F86846FFF7CDFD3D480078002899
:1038100001D000F002F800F05DF83A4A6846FF2156
:10382000FCF765FE36480178684600F08FF8684678
:10383000FFF7B8FD34488090344801788DA802F035
:1038400053FD8DA881903248829032480178CDA8EE
:1038500002F04AFDCDA883902D4884902E4801782F
:103860002E48684402F040FD2C48684485902C485E
:1038700001782C48684402F037FD2A486844869055
:1038800029488790294801782948684402F02CFD8E
:103890002748684488902748899027480178274816
:1038A000684402F021FD254868448A9021488B90A5
:1038B000234801782348684402F016FD21486844F3
:1038C0008C9080AA40A80C23FF21FCF789FE40A819
:1038D000FFF768FD1C4B9D4410BDC046A8F6FFFFD6
:1038E0009869001029400020A06900102A4000209B
:1038F0002B400020AC6900102C400020B46900105F
:103900002D400020BC690010C46900107B400020DD
:10391000CC6900107C4000207D4000203404000071
:103920007E40002034050000D06900107F40002058
:1039300034060000DC6900108040002034070000DD
:1039400081400020340800005809000000B58AB00A
:1039500001906846017068460178012901D200F0A3
:103960004DF80D2901D900F049F8C9B20139890093
:10397000234840588746C046AC390010FC39001037
:10398000FC390010FC390010FC390010FC39001023
:10399000FC390010FC390010FC390010BC39001053
:1039A000CC390010DC390010EC390010019A101CE1
:1039B000144BFF21FCF7AFFD00F020F8019A101C1A
:1039C000114BFF21FCF7A7FD00F018F8019A101C1D
:1039D0000E4BFF21FCF79FFD00F010F8019A101C20
:1039E0000B4BFF21FCF797FD00F008F8019A101C23
:1039F000084BFF21FCF78FFD00F000F80AB000BD76
:103A000078390010E0690010E8690010F4690010CE
:103A1000006A00100C6A001000B58AB01B480078DC
:103A2000802801D200F002F800F014F8174800785E
:103A3000002801D100F002F800F006F814480178DF
:103A400001A8017000F004F81248017801A8017083
:103A500000F014F80D48007802F010FC81B202A8C2
:103A6000018002A800887F21084080B202A9088056
:103A700002A800880849405C01A9087001A80078E4
:103A800069460870694608780AB000BD5C400020AD
:103A900027400020284000201740002000B58AB0B1
:103AA000FFF7BAFFC1B26846017068460178012984
:103AB00001D200F045F80D2901D900F041F8C9B252
:103AC000013989001F4840588746C046003B001016
:103AD000403B0010403B0010403B0010403B0010BA
:103AE000403B0010403B0010403B0010403B0010AA
:103AF000083B0010163B0010243B0010323B001026
:103B0000FEF704FE00F01CF800200F49087001F0D9
:103B1000F3FA00F015F801200B49087001F0ECFAF7
:103B200000F00EF802200849087001F0E5FA00F0F4
:103B300007F803200449087001F0DEFA00F000F8ED
:103B40000AB000BDCC3A00101640002000B58AB083
:103B5000FFF762FFC1B2684601706846017801292B
:103B600001D200F045F80D2901D900F041F8C9B2A1
:103B7000013989001F4840588746C046B03B0010B5
:103B8000F03B0010F03B0010F03B0010F03B001049
:103B9000F03B0010F03B0010F03B0010F03B001039
:103BA000B83B0010C63B0010D43B0010E23B0010B5
:103BB000FEF7E4FD00F01CF800200F49087001F04A
:103BC000DDFA00F015F801200B49087001F0D6FA73
:103BD00000F00EF802200849087001F0CFFA00F05A
:103BE00007F803200449087001F0C8FA00F000F853
:103BF0000AB000BD7C3B00101640002000B58AB022
:103C00000021684601806846028868460188254888
:103C1000095C2548115468460088013080B2694625
:103C20000880684600880F2801D900F002F8FFF7E5
:103C3000EAFF1E4801781E4801701E4801781E48A0
:103C400001701E4801781E4801701E4800781E4908
:103C500008701E4800781E4908701E4800781E49EA
:103C600008701E4800781E4908701E4800781E49DA
:103C700008701820694608806846028800210A48B2
:103C8000115468460088013080B269460880684651
:103C90000088292801D900F002F8FFF7EDFF0AB0EB
:103CA00000BDC046174000208C4000202740002067
:103CB0009C400020284000209D40002029400020FA
:103CC0009E4000202A4000209F4000202B400020E2
:103CD000A04000202C400020A14000202D400020CA
:103CE000A24000202E400020A340002000B588B054
:103CF000FDF7D1FDFDF7D7FD08B000BD10B58AB0C6
:103D00006946088068460488012C01D300F002F857
:103D100000F013F8002101A8018001A800880130FB
:103D200080B201A90880FFF7E1FF01A80088844262
:103D300001D800F002F8FFF7F0FF0AB010BD00B59F
:103D40008AB000F002F8FFF7D1FFFDF7D4FDC0B252
:103D5000002801D0FFF7F7FF00F000F80AB000BD1F
:103D600000B58AB069460870FDF7A5FDFDF757FE5E
:103D700068460078FDF703FFFFF7E1FFFDF733FE2C
:103D8000FDF7A1FD0AB000BD00B588B0FDF7A3FDA9
:103D90006420FFF7B3FFFDF7A6FD08B000BD00B536
:103DA0008AB000F002F8FFF7A1FFFDF7BCFDC0B23A
:103DB000002801D0FFF7F7FF00F000F80AB000BDBF
:103DC00000B58AB000F002F8FFF790FFFDF7C3FDE1
:103DD000C0B2002801D0FFF7F7FF00F000F80AB0EA
:103DE00000BD00B58AB000F002F8FFF77FFFFDF7D5
:103DF000CAFDC0B2002801D0FFF7F7FF00F000F8BD
:103E00000AB000BD00B58AB001216846017000F01B
:103E100017F8FFF76BFFFDF76EFDC0B2002801D069
:103E200000F002F800F00CF8FDF7C5FDC0B2002864
:103E300001D000F002F800F003F80021684601709C
:103E400068460078002801D0FFF7E3FF00F000F893
:103E50000AB000BD00B58AB001216846017000F0CB
:103E600017F8FFF743FFFDF776FDC0B2002801D039
:103E700000F002F800F00CF8FDF79DFDC0B200283C
:103E800001D000F002F800F003F80021684601704C
:103E900068460078002801D0FFF7E3FF00F000F843
:103EA0000AB000BD00B58AB0FFF79BFFFDF7D3FD58
:103EB000C1B201A80170FFF783FF01A8007869462D
:103EC0000870694608780AB000BD00B58AB0694636
:103ED0000870FFF764FF68460078FFF741FF0AB0FB
:103EE00000BD00B58AB06A46107001A80180C620E6
:103EF000FFF7EBFF0620FFF7E8FF01A8017802A813
:103F0000017002A80078FFF7E0FF01A80088000A0E
:103F1000C0B202A9087002A80078FFF7D6FF684671
:103F20000078FFF7D2FF0AB000BD00B588B0FFF7F8
:103F30002BFF00210020FFF7D4FF08B000BD00B523
:103F40008AB069460880B820FFF7BFFF684601784D
:103F500001A8017001A80078FFF7B7FF6846008844
:103F6000000AC0B201A9087001A80078FFF7ADFFF0
:103F70008E20FFF7AAFFD820FFF7A7FF0AB000BDE9
:103F800000B588B0FFF700FF2248FFF7D8FF0021F7
:103F9000EA20FFF7A6FF01215B20FFF7A2FF022125
:103FA0000020FFF79EFF03210020FFF79AFF042166
:103FB000F820FFF796FF05213020FFF792FF06213A
:103FC0003120FFF78EFF07212F20FFF78AFF0821FE
:103FD0003020FFF786FF09213120FFF782FF0A21F9
:103FE0002F20FFF77EFF0B213920FFF77AFF0C21EE
:103FF0003220FFF776FF0D210020FFF772FF0E2120
:10400000FE20FFF76EFF0F215520FFF76AFF08B073
:1040100000BDC046FFFF000000B58AB01448FFF79E
:104020008EFF002101A801800021684601806846BA
:10403000018810480A5C01A80188101CFFF751FF95
:1040400001A80088013080B201A908806846008874
:10405000013080B26946088068460188064881427E
:1040600001D900F002F8FFF7E2FF0AB000BDC04638
:1040700000F8000052000020F415000000B588B0E0
:10408000FFF753FFFFF77CFFFFF7C6FFFFF77CFE4C
:1040900008B000BD00B58AB035480178012901D2C9
:1040A00000F044F80D2901D900F040F8C9B20139F7
:1040B0008900304840588746EC4000102C410010E1
:1040C0002C4100102C4100102C4100102C410010FC
:1040D0002C4100102C4100102C410010F440001025
:1040E00002410010104100101E410010FEF76AFA54
:1040F00000F01FF800212048017000F029FF00F0B7
:1041000018F801211C48017000F022FF00F011F89E
:1041100002211948017000F01BFF00F00AF803218A
:104120001548017000F014FF00F003F8684600F035
:1041300027F8002101A8018001A801880F48095C27
:1041400068460170FFF75EFE68460078FFF708FEDC
:1041500001A80088013080B201A9088001A8008868
:10416000062801D900F002F8FFF7E6FF0AB000BD0B
:104170002D400020B8400010164000207B40002059
:1041800000B58AB0009030210A48017011200A4918
:104190000870202009490870252009490870172057
:1041A00008490870492008490870562007490870D6
:1041B0000AB000BD7B4000207C4000207D400020F4
:1041C0007E4000207F400020804000208140002071
:1041D00000B58AB02A480178012901D200F047F8D9
:1041E0000D2901D900F043F8C9B2013989002548E9
:1041F00040588746284200106E4200106E42001060
:104200006E4200106E4200106E4200106E420010AE
:104210006E4200106E420010364200104442001000
:104220005242001060420010FEF778FBC1B21648FF
:10423000017000F01CF800201449087000F008FF1D
:1042400000F015F801201149087000F001FF00F09E
:104250000EF802200D49087000F0FAFE00F007F891
:1042600003200A49087000F0F3FE00F000F8FFF7A1
:10427000C9FD05480078FFF773FD0AB000BDC046D0
:104280002A400020F4410010564000201640002033
:1042900000B58AB030480178012901D200F044F815
:1042A0000D2901D900F040F8C9B2013989002B4825
:1042B00040588746E8420010284300102843001069
:1042C0002843001028430010284300102843001002
:1042D0002843001028430010F0420010FE42001056
:1042E0000C4300101A430010FEF7A8FB00F01CF866
:1042F00000211B48017000F0E9FE00F015F80121D3
:104300001748017000F0E2FE00F00EF80221144898
:10431000017000F0DBFE00F007F803211048017087
:1043200000F0D4FE00F000F80E480088000AC1B288
:1043300068460170FFF766FD68460078FFF710FDDC
:104340000848007869460870FFF75CFD6846007809
:10435000FFF706FD0AB000BD2A400020B44200105D
:10436000164000205840002000B58AB0FFF728FD15
:10437000FFF770FDFDF76FFBC1B268460170FFF7F4
:104380001FFD68460078722801D100F002F800F0A5
:1043900047F82D480078012801D100F002F800F01C
:1043A00004F8FEF753F900F003F82848FDF79FFDE5
:1043B0002748017801A80170FFF724FD01A80078C3
:1043C000FFF7CEFC23480088000AC1B201A80170A3
:1043D000FFF718FD01A80078FFF7C2FC1D4801781F
:1043E00001A80170FFF70EFD01A80078FFF7B8FCE7
:1043F00019480088000AC0B201A90870FFF702FD41
:1044000001A80078FFF7ACFC1348007801A90870F8
:10441000FFF7F8FC01A80078FFF7A2FC00F011F804
:1044200009480078012801D100F002F800F006F8F0
:1044300068460078FEF74EF900F003F80748FDF7EC
:1044400056FD0AB000BDC0462E400020186A00107C
:10445000104000201240002014400020206A00106C
:1044600000B590B0FFF7ACFCFFF7F4FCFDF7F3FAF2
:10447000C1B268460170FFF7A3FCFFF7EBFCFDF744
:10448000EAFAC1B201A80170FFF79AFCFFF7E2FC5B
:10449000FDF7E1FAC1B202A80170FFF791FCFFF746
:1044A000D9FCFDF7D8FAC1B203A80170FFF788FC68
:1044B000FFF7D0FCFDF7CFFAC1B23948017001A86F
:1044C000007801F0DBFE81B23648018002A8007856
:1044D00001F0D4FE81B204A8018004A80088000283
:1044E00081B204A801802F48018804A800884018E0
:1044F00080B204A908802A480078802801D200F000
:1045000002F800F00CF828480088013081B206A8B3
:1045100001802648018805A8018000F00AF8244897
:104520000088013081B206A801802248018805A8D0
:10453000018004A8018806A80088484380B204A925
:10454000088003A8007801F099FE80B207A90880CE
:1045500004A8018807A80088401880B204A9088030
:1045600004A8018805A80088484381B204A80180F6
:104570006846007801F082FE81B20A48018009484D
:104580000088013881B2074801800648018804A8E4
:104590000088401881B20348018010B000BDC046B9
:1045A0005C400020644000204A160020481600208D
:1045B0004E1600204C16002000B58AB0002101A83C
:1045C000017012480078002801D000F002F800F0D5
:1045D00006F801A800780130C0B201A908700C48A3
:1045E0000078002801D000F002F800F006F801A8D9
:1045F00000780130C0B201A9087001A801786846AE
:104600000170694608780AB000BDC0462740002006
:104610002840002000B58AB0002101A801700021C7
:1046200002A8018002A801881348095C03A8017050
:1046300003A80078002801D000F002F800F006F886
:1046400001A800780130C0B201A9087002A8008852
:10465000013080B202A9088002A800880F2801D981
:1046600000F002F8FFF7DEFF01A800786946087045
:10467000694608780AB000BD1740002000B58AB02E
:10468000FFF79AFFC1B268460170FFF799FBFFF789
:10469000B9FB68460078FFF763FBFFF7BBFFC0B2CA
:1046A00069460870FFF78CFBFFF7ACFB68460078A3
:1046B000FFF756FB0AB000BD00B58AB0FFF7EEF970
:1046C000002101A8018001A801880D48095C684605
:1046D0000170FFF797FB68460078FFF741FB01A8E0
:1046E0000088013080B201A9088001A8018805482E
:1046F000814201D900F002F8FFF7E5FF0AB000BDE2
:10470000B6400020FF01000000B58AB0002101A8DA
:104710000180FFF755FBFFF79DFBFFF7C3FBC1B21D
:104720006846017001A80288684601780A48115459
:1047300001A80088013080B201A9088001A8018881
:104740000648814201D900F002F8FFF7E2FFFFF7C7
:10475000FDF90AB000BDC046B6400020FF010000D0
:1047600000B58AB0002101A80180FFF729FBFFF7FF
:1047700071FBFFF797FBC1B26846017001A8028880
:10478000684601780948115401A80088013080B2B8
:1047900001A9088001A80088122801D900F002F8B8
:1047A000FFF7E3FFFEF762F90AB000BD66400020A4
:1047B00000B58AB0FFF704FBFFF74CFBFFF772FB75
:1047C000C1B20C480170FFF7FBFAFFF743FBFFF79C
:1047D00069FBC0B208490870FFF7F2FAFFF73AFB2D
:1047E000FFF760FBC0B205490870FEF733FD0AB061
:1047F00000BDC0465D4000205E4000205F400020BC
:1048000000B58AB0FFF7DCFAFFF724FBFFF74AFB9D
:10481000C1B209480170FEF771FDFFF7F3FA0748CE
:104820000078FFF79DFAFFF7EDFA05480078FFF7EB
:1048300097FA0AB000BDC0466040002061400020E9
:104840006240002000B58AB0002101A80180FFF776
:10485000B7FAFFF7FFFAFFF725FBC1B26846017010
:1048600001A80288684601780948115401A8008807
:10487000013080B201A9088001A80088142801D95C
:1048800000F002F8FFF7E3FFFEF790FC0AB000BD6E
:10489000B640002000B58AB0FEF73CFC002101A81C
:1048A000018001A801880D48095C68460170FFF786
:1048B000A9FA68460078FFF753FA01A8008801308A
:1048C00080B201A9088001A80088092801D900F058
:1048D00002F8FFF7E6FF0AB000BDC04682400020A4
:1048E00000B58AB0002101A80180FFF769FAFFF73F
:1048F000B1FAFFF7D7FAC1B26846017001A8028881
:10490000684601780948115401A80088013080B236
:1049100001A9088001A80088092801D900F002F83F
:10492000FFF7E3FFFEF732FC0AB000BD8240002033
:1049300000B58AB0FFF762F9002101A8018001A843
:1049400001880D48095C68460170FFF75BFA68460C
:104950000078FFF705FA01A80088013080B201A9AC
:10496000088001A80088292801D900F002F8FFF783
:10497000E6FF0AB000BDC0468C40002000B58AB0FA
:10498000FCF7E9FFC0B2002801D000F002F800F007
:1049900091F8FFF787FAC1B268460170684601785E
:1049A000042901D200F086F81E2901D900F082F80E
:1049B000C9B204398900414840588746284A001046
:1049C000304A0010B44A0010B44A0010B44A001033
:1049D000B44A0010844A0010B44A0010484A00103B
:1049E000B44A0010504A00105C4A0010644A00109B
:1049F000404A00106C4A0010B44A0010744A00107B
:104A00007C4A0010B44A0010B44A00108C4A0010CE
:104A1000B44A0010944A0010384A00109C4A001012
:104A2000A44A0010AC4A0010FFF732FC00F042F834
:104A3000FFF7CEFB00F03EF8FFF796FC00F03AF8E7
:104A4000FFF70EFD00F036F8FFF718FE00F032F821
:104A5000FEF794FEFEF706FD00F02CF8FFF72CFEA3
:104A600000F028F8FFF750FE00F024F8FFF778FE7A
:104A700000F020F8FFF79CFE00F01CF8FFF7C0FEE6
:104A800000F018F8FFF706FB00F014F8FFF7DAFE65
:104A900000F010F801F046FD00F00CF8FFF7FAFE08
:104AA00000F008F8FFF71CFF00F004F8FFF740FFE4
:104AB00000F000F8FFF784F90AB000BDBC4900100F
:104AC00000B588B017480078002801D100F002F83E
:104AD00000F005F81448FDF70AFAFCF7EFFD13485B
:104AE0000078002801D100F002F800F008F8104822
:104AF000FEF758FC0F48FEF755FCFCF7DFFD0E48AB
:104B00000078002801D100F002F800F008F8084809
:104B1000FEF748FC0948FEF745FCFCF7CFFD08B05E
:104B200000BDC04629400020286A00102A4000200D
:104B3000586A00105C6A001027400020906A00103C
:104B400000B588B016480078002801D100F00EF8B2
:104B5000013801D100F010F8013801D100F012F84D
:104B6000013801D100F014F800F018F800211520E8
:104B7000FCF748FB00F012F800211620FCF742FB7E
:104B800000F00CF800210220FCF73CFB00F006F8D6
:104B900000210320FCF736FB00F000F808B000BD50
:104BA0001640002000B588B016480078002801D1D2
:104BB00000F00EF8013801D100F010F8013801D1F1
:104BC00000F012F8013801D100F014F800F018F8E4
:104BD00001211520FCF716FB00F012F80121162028
:104BE000FCF710FB00F00CF801210220FCF70AFB97
:104BF00000F006F801210320FCF704FB00F000F8A8
:104C000008B000BD1640002000B58AB069460870A3
:104C10006846007801210840002801D1002000E00A
:104C20000120C1B20E20FCF7EDFA6846007802219F
:104C30000840002801D1002000E00120C1B20F206F
:104C4000FCF7E0FA6846007804210840002801D10A
:104C5000002000E00120C1B21020FCF7D3FA684622
:104C6000007808210840002801D1002000E0012040
:104C7000C1B20420FCF7C6FA0AB000BD00B58AB084
:104C8000002101A801700E20FCF78EFAC0B20028A6
:104C900001D000F002F800F007F801A80078012127
:104CA0000843C1B201A801700F20FCF77DFAC0B221
:104CB000002801D000F002F800F007F801A8007801
:104CC00002210843C1B201A801701020FCF76CFA60
:104CD000C0B2002801D000F002F800F007F801A8E7
:104CE000007804210843C1B201A801700420FCF738
:104CF0005BFAC0B2002801D000F002F800F007F81B
:104D000001A8007808210843C0B201A9087001A8D1
:104D1000007869460870694608780AB000BD00B599
:104D20008AB06946087068460078FFF76DFFFFF7A4
:104D300007FF00F000F81420FCF78AFDC0B200283D
:104D400001D0FFF7F8FF00F000F8FFF72BFF00F0AD
:104D500000F81420FCF78BFDC0B2002801D0FFF74B
:104D6000F8FF00F000F80AB000BD00B58AB069464F
:104D70000870FCF7C1FFFFF715FF684600780F21A8
:104D80000840C0B2FFF7CBFF6846007800090F214A
:104D90000840C0B2FFF7C3FFFCF7BEFF0AB000BD7A
:104DA00000B58CB06946087068460078FFF72CFFA4
:104DB000FFF7C6FE00200290012103A8017000F059
:104DC0001BF81420FCF753FDC0B2002801D000F0FE
:104DD00002F800F003F8002103A8017002981F49AF
:104DE000884201D900F002F800F003F8002003A97E
:104DF000087002980130029003A80078002801D0C2
:104E0000FFF7DFFF00F000F81420FCF730FDC0B220
:104E1000002801D000F002F800F013F8FFF7C2FEFE
:104E2000012103A8017000F000F81420FCF71FFD19
:104E3000C0B2002801D0FFF7F8FF00F000F800F042
:104E400005F8FFF7AFFE002103A8017003A8017861
:104E500001A8017001A908780CB000BDA08601006E
:104E600000B58AB069460870FCF746FFFFF79AFE66
:104E7000684600780F210840C0B2FFF791FFC1B229
:104E800003A8017003A80078002801D000F002F800
:104E900000F008F86846007800090F210840C0B209
:104EA000FFF73DFFFCF738FF03A8007801A9087061
:104EB00001A908780AB000BD00B58AB0FFF740FE2E
:104EC00000F000F81420FCF7C3FCC0B2002801D0A9
:104ED000FFF7F8FF00F000F8FFF7D0FEC1B201A81D
:104EE0000170FFF75FFE00F000F81420FCF7BFFC34
:104EF000C0B2002801D0FFF7F8FF00F000F801A8C9
:104F0000007869460870694608780AB000BD00B5A7
:104F10008AB0FCF701FFFFF745FEFFF7CDFFC1B2F6
:104F200001A80170FFF7C8FFC1B202A8017002A872
:104F30000178090101A800784018C0B201A90870E1
:104F400001A8007869460870694608780AB000BD73
:104F500000B58AB00F20FFF708FF002168460180E6
:104F6000FFF7D5FFC1B201A801706846028801A809
:104F700001780948115468460088013080B26946BA
:104F8000088068460088062801D900F002F8FFF77B
:104F9000E7FF0AB000BDC0467B40002000B58AB0E4
:104FA0000C20FFF7E2FE002101A8018001A8018882
:104FB0000B48095C6846017068460078FFF7D5FE2B
:104FC00001A80088013080B201A9088001A80088EA
:104FD000142801D900F002F8FFF7E8FF0AB000BD7D
:104FE000B640002000B588B00A20FFF7BEFE074893
:104FF0000078FFF7BAFE06480078FFF7B6FE0548CE
:105000000078FFF7B2FE08B000BDC0465D4000204A
:105010005E4000205F40002000B58AB00B20FFF703
:10502000A4FE08480078FFF7A0FEFFF770FFC0B2AB
:1050300005490870FFF76BFFC0B2044908700AB059
:1050400000BDC0466040002061400020624000205A
:1050500000B58AB00420FFF788FEFFF758FFC1B201
:10506000014801700AB000BD5640002000B58AB06A
:105070000520FFF77AFEFFF74AFFC1B268460170CC
:105080006846007801F0FAF881B201A8018001A811
:105090000088000280B201A9088001A800880A499E
:1050A0000880FFF734FFC0B2694608706846007890
:1050B00001A908800448018801A80088401881B22D
:1050C000014801800AB000BD5840002000B588B0FA
:1050D000FFF7BEFF00F002F8FFF7BAFF05480078BF
:1050E000642801D2FFF7F8FF00F000F8FFF7BEFFD9
:1050F00008B000BD5640002000B58AB00720FFF779
:1051000034FE1A480088000AC1B268460170684639
:105110000078FFF72AFE1548017868460170684656
:105120000078FFF722FE12480078FFF71EFE0021EC
:1051300001A80180FFF7EBFEC0B26946087001A824
:105140000288684601780B48115401A80088013094
:1051500080B201A9088001A801880748814201D9CD
:1051600000F002F8FFF7E6FF0AB000BD644000203F
:105170005C400020B6400020FF01000000B58AB06E
:105180000820FFF7F2FD1A480088000AC1B26846FD
:10519000017068460078FFF7E8FD15480178684619
:1051A000017068460078FFF7E0FD12480078FFF7CD
:1051B000DCFD002101A8018001A800880E49415CA6
:1051C0006846017068460078FFF7CFFD01A80088A7
:1051D000013080B201A9088001A8018807488142F6
:1051E00001D900F002F8FFF7E7FF0AB000BDC046A2
:1051F000644000205C400020B6400020FF01000019
:1052000000B58AB019480078002801D100F00EF8E6
:10521000013801D100F00FF8013801D100F010F889
:10522000013801D100F011F800F014F80A2101A8AA
:10523000017000F012F80B2101A8017000F00DF8C8
:105240000C2101A8017000F008F80D2001A90870D8
:1052500000F003F8002001A9087001A80178684651
:105260000170694608780AB000BDC04616400020AB
:1052700000B58CB00120FFF7F3FDC1B268460170A4
:1052800068460078002801D000F002F800F0D9F854
:10529000FFF73DFEC1B201A8017001A8017880208E
:1052A000014002A8017002A80078002801D900F08E
:1052B00002F800F005F8FFF7A3FFC1B262480170E1
:1052C00001A8007840210840C1B202A8017002A8DC
:1052D0000078002801D900F002F800F005F8FFF787
:1052E0008FFFC1B25948017001A800782021084001
:1052F000C1B202A8017002A80078002801D900F00C
:1053000002F800F005F8FFF77BFFC1B250480170CA
:1053100001A8007810210840C1B202A8017002A8BB
:105320000078002801D900F002F800F005F8FFF736
:1053300067FFC1B24748017001A800780821084002
:10534000C0B202A9087002A80078002801D900F0B4
:1053500002F800F02BF840480078002801D100F056
:105360000EF8013801D100F00FF8013801D100F03A
:1053700010F8013801D100F011F800F014F80A21FA
:105380003648017000F00FF80B213548017000F02D
:105390000AF80C213348017000F005F80D2132485D
:1053A000017000F000F801203049087001A8007871
:1053B00004210840C0B202A9087002A800780028A1
:1053C00001D900F002F800F028F8234800780028FE
:1053D00001D100F00EF8013801D100F00FF80138CA
:1053E00001D100F010F8013801D100F011F800F0FF
:1053F00014F80A201E49087000F00FF80B201D4910
:10540000087000F00AF80C201B49087000F005F83D
:105410000D201A49087000F000F801A80078022158
:105420000840C1B202A8017002A80078002801D982
:1054300000F002F800F005F8FFF7E2FEC0B21049F4
:1054400008700CB000BDC046294000202A40002052
:105450002B4000202C40002016400020414000201E
:1054600042400020434000204440002052400020A1
:105470001740002018400020194000201A4000204A
:105480002D40002000B58AB00220FFF7E9FCC1B230
:105490006846017068460078002801D000F002F8E4
:1054A00000F011F8FFF733FDC1B201A8017001A8A7
:1054B0000078022801D100F002F800F004F8FFF7AC
:1054C000D7FE00F000F80AB000BD000000B588B0BB
:1054D000002136480170FFF7D5FF012133480170E4
:1054E000FFF7D0FF022131480170FFF7CBFF032106
:1054F0002E480170FFF7C6FF00212C480170FFF70E
:10550000C1FF012029490870FFF7BCFF022027498D
:105510000870FFF7B7FF032024490870FFF7B2FFB8
:10552000002022490870FFF7ADFF01201F490870D5
:10553000FFF7A8FF02201D490870FFF7A3FF032013
:105540001A490870FFF79EFFFBF788FFFBF7DEFFA5
:1055500017480078002801D000F002F800F011F898
:1055600001211448017014480078002801D000F08F
:1055700002F800F004F8104801781048017000F0BB
:1055800004F80D4800780B4908700D480078002891
:1055900001D000F002F800F007F8FBF707FF012048
:1055A00008490870FBF7B2FF08B000BD16400020A4
:1055B000514000202740002041400020284000208A
:1055C000534000201740002000B588B00020FBF7B2
:1055D000C7FC08B000BD000000B588B013491448EE
:1055E00000F02EF81349124800F038F8124801680C
:1055F000104801400F48814201D100F002F8FFF746
:10560000F5FF00F047F80D49094800F027F80A486F
:1056100001680A4801400948814201D100F002F8BE
:10562000FFF7F5FF00F02EFC08B000BDBFCDFF0175
:1056300000C00040BE4D3C0008C00040FFFFFF011D
:1056400000B58AB0009001910098019A0249401873
:1056500002600AB000BDC0460020000000B58AB05C
:10566000009001910098019A0249401802600AB026
:1056700000BDC0460030000000B588B0FFF7ACFFA9
:1056800008B000BD024B18688007C00F7047C046C5
:1056900000C0064030B50C2083B000F0AFF9FFF732
:1056A000F1FF00280ED09A4B9A4A1A605A609A600D
:1056B000DA601A615A619A61DA611A62964A5A622C
:1056C00003B030BD954CA06700F05AF90122944B0D
:1056D0001A60636C012BFCD10322924B1A608F4A33
:1056E000936B012BFCD1C0228F4B92011A608F4B20
:1056F0008F491A6010008B689843031EFAD1022468
:1057000001218C4A8C480633009400F04DF90523A2
:105710008A4A01218A48009400F046F9894B5A6868
:10572000FF2A02D8802252005A608022784C7D4B9A
:1057300021691201834D1A60002905D0606900F0CB
:105740007DFF01300138FDD1E0217E4B02201A6837
:105750001140802252012A431160196848400321F8
:105760000140116004219A681142FCD080228021FE
:1057700092012A4309011160802252005A60724B43
:105780002361724B5968FF2900D85A6003226F4881
:10579000634B01211A60020093681942FCD0E02596
:1057A00013681D4080235B0103431D6012684A405B
:1057B0000321114019600221644A93681942FCD008
:1057C000802380219B010343090119608021604BE4
:1057D0004900516063615F4B5A68FF2A00D85960E5
:1057E00080225D4BE16912015A4D1A60002905D0F3
:1057F000606900F023FF01300138FDD1E0225549F6
:105800000B681A4080235B012B431A60802380229F
:105810009B012B4312011A6080223E4B52004A60CA
:10582000E3614E4B5968FF2900D85A6080224C4BE7
:10583000216A1201494D1A60002905D0606900F003
:10584000FDFE01300138FDD1E02244490B681A40C9
:1058500080235B012B431A60802380229B012B4312
:1058600012011A60802380225B004B60294BD20218
:1058700023623C4B5968914200D25A6080223A4BD5
:10588000616A1201374D1A60002905D0606900F085
:10589000D5FE01300138FDD1E02232490B681A40B3
:1058A00080235B012B431A60802380229B012B43C2
:1058B00012011A608023DB024B60174B63622B4B93
:1058C0005A68FF2A02D8802252005A608022284B50
:1058D000A1691201254D1A60002905D0606900F008
:1058E000ADFE01300138FDD1E02220490B681A409D
:1058F00080235B012B431A60802380229B012B4372
:1059000012011A6080235B004B60114BA361D7E644
:10591000C0430020006CDC021BB700000080004088
:105920003CB0004030B0004000E0004000F00040DB
:1059300000C00040002F68590080024000389C1CC5
:1059400000C0024030800040001BB7003C80004097
:10595000405973075480004054B0004060800040BC
:1059600060B000406C8000406CB000404880004057
:1059700048B00040014B8000C0587047C043002031
:10598000AA23064A1B0113602F230549D360054B48
:1059900019605368002BFCDA7047C0460040024093
:1059A00000B0FA0000600240F8B51E0001235B421F
:1059B000436000230400836001600C20170000F0A6
:1059C0003DFE4101091A8D01691AC90009188901B2
:1059D000380000F033FEC021231D89011943212323
:1059E000A0600B602268002AFCDA069B36041B03C9
:1059F0001E430823E6600B60F8BDC0468023024AC0
:105A00009B000343D362704700800540012383401D
:105A1000002904D0034A1360034A13607047034A05
:105A20001360FBE780E200E000E100E080E100E0DD
:105A300001228240034B1B681340581E8341D8B299
:105A40007047C04600E100E0F0B500220324FF27C4
:105A5000802620003D00094B11009C461040C000EC
:105A60008540A14361440B680132AB43350085405A
:105A70002B430B60202AECD1F0BDC04600E400E0CF
:105A800000B58AB0011C024808580AB000BDC046E3
:105A9000FCFFFFFFF0B596B00090011C0431102907
:105AA00001D200F002F800F003F8102700F018F817
:105AB000009904310322131C5B18111C04200140BF
:105AC000002901D100F002F800F004F8D04318409A
:105AD00000F005F8191C032211405B1A181C071C62
